{
    "contractName": "Grotto",
    "abi": [
        {
            "inputs": [
                {
                    "internalType": "address",
                    "name": "_storeAddress",
                    "type": "address"
                },
                {
                    "internalType": "address",
                    "name": "_owner",
                    "type": "address"
                }
            ],
            "stateMutability": "nonpayable",
            "type": "constructor"
        },
        {
            "anonymous": false,
            "inputs": [
                {
                    "indexed": true,
                    "internalType": "uint256",
                    "name": "lottoId",
                    "type": "uint256"
                },
                {
                    "indexed": false,
                    "internalType": "uint256",
                    "name": "amount",
                    "type": "uint256"
                },
                {
                    "indexed": true,
                    "internalType": "address",
                    "name": "player",
                    "type": "address"
                }
            ],
            "name": "BetPlaced",
            "type": "event"
        },
        {
            "anonymous": false,
            "inputs": [
                {
                    "indexed": true,
                    "internalType": "uint256",
                    "name": "lottoId",
                    "type": "uint256"
                }
            ],
            "name": "Claimed",
            "type": "event"
        },
        {
            "anonymous": false,
            "inputs": [
                {
                    "components": [
                        {
                            "internalType": "uint256",
                            "name": "id",
                            "type": "uint256"
                        },
                        {
                            "internalType": "address",
                            "name": "creator",
                            "type": "address"
                        },
                        {
                            "internalType": "uint256",
                            "name": "numberOfWinners",
                            "type": "uint256"
                        },
                        {
                            "internalType": "uint256[]",
                            "name": "winnersShares",
                            "type": "uint256[]"
                        },
                        {
                            "internalType": "uint256",
                            "name": "startTime",
                            "type": "uint256"
                        },
                        {
                            "internalType": "uint256",
                            "name": "endTime",
                            "type": "uint256"
                        },
                        {
                            "internalType": "uint256",
                            "name": "maxNumberOfPlayers",
                            "type": "uint256"
                        },
                        {
                            "internalType": "uint256",
                            "name": "betAmount",
                            "type": "uint256"
                        },
                        {
                            "internalType": "enum WinningType",
                            "name": "winningType",
                            "type": "uint8"
                        },
                        {
                            "internalType": "uint256[]",
                            "name": "winnings",
                            "type": "uint256[]"
                        },
                        {
                            "internalType": "bool",
                            "name": "isFinished",
                            "type": "bool"
                        },
                        {
                            "internalType": "uint256",
                            "name": "stakes",
                            "type": "uint256"
                        },
                        {
                            "internalType": "address[]",
                            "name": "players",
                            "type": "address[]"
                        },
                        {
                            "internalType": "address[]",
                            "name": "winners",
                            "type": "address[]"
                        }
                    ],
                    "indexed": false,
                    "internalType": "struct Lotto",
                    "name": "lotto",
                    "type": "tuple"
                }
            ],
            "name": "LottoCreated",
            "type": "event"
        },
        {
            "anonymous": false,
            "inputs": [
                {
                    "components": [
                        {
                            "components": [
                                {
                                    "internalType": "uint256",
                                    "name": "id",
                                    "type": "uint256"
                                },
                                {
                                    "internalType": "address",
                                    "name": "creator",
                                    "type": "address"
                                },
                                {
                                    "internalType": "uint256",
                                    "name": "numberOfWinners",
                                    "type": "uint256"
                                },
                                {
                                    "internalType": "uint256[]",
                                    "name": "winnersShares",
                                    "type": "uint256[]"
                                },
                                {
                                    "internalType": "uint256",
                                    "name": "startTime",
                                    "type": "uint256"
                                },
                                {
                                    "internalType": "uint256",
                                    "name": "endTime",
                                    "type": "uint256"
                                },
                                {
                                    "internalType": "uint256",
                                    "name": "maxNumberOfPlayers",
                                    "type": "uint256"
                                },
                                {
                                    "internalType": "uint256",
                                    "name": "betAmount",
                                    "type": "uint256"
                                },
                                {
                                    "internalType": "enum WinningType",
                                    "name": "winningType",
                                    "type": "uint8"
                                },
                                {
                                    "internalType": "uint256[]",
                                    "name": "winnings",
                                    "type": "uint256[]"
                                },
                                {
                                    "internalType": "bool",
                                    "name": "isFinished",
                                    "type": "bool"
                                },
                                {
                                    "internalType": "uint256",
                                    "name": "stakes",
                                    "type": "uint256"
                                },
                                {
                                    "internalType": "address[]",
                                    "name": "players",
                                    "type": "address[]"
                                },
                                {
                                    "internalType": "address[]",
                                    "name": "winners",
                                    "type": "address[]"
                                }
                            ],
                            "internalType": "struct Lotto",
                            "name": "lotto",
                            "type": "tuple"
                        },
                        {
                            "internalType": "uint256",
                            "name": "potAmount",
                            "type": "uint256"
                        },
                        {
                            "internalType": "uint256[]",
                            "name": "winningNumbers",
                            "type": "uint256[]"
                        },
                        {
                            "internalType": "enum PotGuessType",
                            "name": "potGuessType",
                            "type": "uint8"
                        }
                    ],
                    "indexed": false,
                    "internalType": "struct Pot",
                    "name": "pot",
                    "type": "tuple"
                }
            ],
            "name": "PotCreated",
            "type": "event"
        },
        {
            "inputs": [
                {
                    "internalType": "uint256",
                    "name": "lottoId",
                    "type": "uint256"
                }
            ],
            "name": "claim",
            "outputs": [],
            "stateMutability": "payable",
            "type": "function"
        },
        {
            "inputs": [
                {
                    "components": [
                        {
                            "internalType": "uint256",
                            "name": "id",
                            "type": "uint256"
                        },
                        {
                            "internalType": "address",
                            "name": "creator",
                            "type": "address"
                        },
                        {
                            "internalType": "uint256",
                            "name": "numberOfWinners",
                            "type": "uint256"
                        },
                        {
                            "internalType": "uint256[]",
                            "name": "winnersShares",
                            "type": "uint256[]"
                        },
                        {
                            "internalType": "uint256",
                            "name": "startTime",
                            "type": "uint256"
                        },
                        {
                            "internalType": "uint256",
                            "name": "endTime",
                            "type": "uint256"
                        },
                        {
                            "internalType": "uint256",
                            "name": "maxNumberOfPlayers",
                            "type": "uint256"
                        },
                        {
                            "internalType": "uint256",
                            "name": "betAmount",
                            "type": "uint256"
                        },
                        {
                            "internalType": "enum WinningType",
                            "name": "winningType",
                            "type": "uint8"
                        },
                        {
                            "internalType": "uint256[]",
                            "name": "winnings",
                            "type": "uint256[]"
                        },
                        {
                            "internalType": "bool",
                            "name": "isFinished",
                            "type": "bool"
                        },
                        {
                            "internalType": "uint256",
                            "name": "stakes",
                            "type": "uint256"
                        },
                        {
                            "internalType": "address[]",
                            "name": "players",
                            "type": "address[]"
                        },
                        {
                            "internalType": "address[]",
                            "name": "winners",
                            "type": "address[]"
                        }
                    ],
                    "internalType": "struct Lotto",
                    "name": "lotto",
                    "type": "tuple"
                }
            ],
            "name": "createLotto",
            "outputs": [],
            "stateMutability": "payable",
            "type": "function"
        },
        {
            "inputs": [
                {
                    "components": [
                        {
                            "components": [
                                {
                                    "internalType": "uint256",
                                    "name": "id",
                                    "type": "uint256"
                                },
                                {
                                    "internalType": "address",
                                    "name": "creator",
                                    "type": "address"
                                },
                                {
                                    "internalType": "uint256",
                                    "name": "numberOfWinners",
                                    "type": "uint256"
                                },
                                {
                                    "internalType": "uint256[]",
                                    "name": "winnersShares",
                                    "type": "uint256[]"
                                },
                                {
                                    "internalType": "uint256",
                                    "name": "startTime",
                                    "type": "uint256"
                                },
                                {
                                    "internalType": "uint256",
                                    "name": "endTime",
                                    "type": "uint256"
                                },
                                {
                                    "internalType": "uint256",
                                    "name": "maxNumberOfPlayers",
                                    "type": "uint256"
                                },
                                {
                                    "internalType": "uint256",
                                    "name": "betAmount",
                                    "type": "uint256"
                                },
                                {
                                    "internalType": "enum WinningType",
                                    "name": "winningType",
                                    "type": "uint8"
                                },
                                {
                                    "internalType": "uint256[]",
                                    "name": "winnings",
                                    "type": "uint256[]"
                                },
                                {
                                    "internalType": "bool",
                                    "name": "isFinished",
                                    "type": "bool"
                                },
                                {
                                    "internalType": "uint256",
                                    "name": "stakes",
                                    "type": "uint256"
                                },
                                {
                                    "internalType": "address[]",
                                    "name": "players",
                                    "type": "address[]"
                                },
                                {
                                    "internalType": "address[]",
                                    "name": "winners",
                                    "type": "address[]"
                                }
                            ],
                            "internalType": "struct Lotto",
                            "name": "lotto",
                            "type": "tuple"
                        },
                        {
                            "internalType": "uint256",
                            "name": "potAmount",
                            "type": "uint256"
                        },
                        {
                            "internalType": "uint256[]",
                            "name": "winningNumbers",
                            "type": "uint256[]"
                        },
                        {
                            "internalType": "enum PotGuessType",
                            "name": "potGuessType",
                            "type": "uint8"
                        }
                    ],
                    "internalType": "struct Pot",
                    "name": "pot",
                    "type": "tuple"
                }
            ],
            "name": "createPot",
            "outputs": [],
            "stateMutability": "payable",
            "type": "function"
        },
        {
            "inputs": [
                {
                    "internalType": "uint256",
                    "name": "lottoId",
                    "type": "uint256"
                }
            ],
            "name": "findWinners",
            "outputs": [],
            "stateMutability": "nonpayable",
            "type": "function"
        },
        {
            "inputs": [
                {
                    "internalType": "uint256",
                    "name": "lottoId",
                    "type": "uint256"
                }
            ],
            "name": "forceEndLotto",
            "outputs": [],
            "stateMutability": "nonpayable",
            "type": "function"
        },
        {
            "inputs": [
                {
                    "internalType": "uint256",
                    "name": "lottoId",
                    "type": "uint256"
                }
            ],
            "name": "getLottoById",
            "outputs": [
                {
                    "components": [
                        {
                            "internalType": "uint256",
                            "name": "id",
                            "type": "uint256"
                        },
                        {
                            "internalType": "address",
                            "name": "creator",
                            "type": "address"
                        },
                        {
                            "internalType": "uint256",
                            "name": "numberOfWinners",
                            "type": "uint256"
                        },
                        {
                            "internalType": "uint256[]",
                            "name": "winnersShares",
                            "type": "uint256[]"
                        },
                        {
                            "internalType": "uint256",
                            "name": "startTime",
                            "type": "uint256"
                        },
                        {
                            "internalType": "uint256",
                            "name": "endTime",
                            "type": "uint256"
                        },
                        {
                            "internalType": "uint256",
                            "name": "maxNumberOfPlayers",
                            "type": "uint256"
                        },
                        {
                            "internalType": "uint256",
                            "name": "betAmount",
                            "type": "uint256"
                        },
                        {
                            "internalType": "enum WinningType",
                            "name": "winningType",
                            "type": "uint8"
                        },
                        {
                            "internalType": "uint256[]",
                            "name": "winnings",
                            "type": "uint256[]"
                        },
                        {
                            "internalType": "bool",
                            "name": "isFinished",
                            "type": "bool"
                        },
                        {
                            "internalType": "uint256",
                            "name": "stakes",
                            "type": "uint256"
                        },
                        {
                            "internalType": "address[]",
                            "name": "players",
                            "type": "address[]"
                        },
                        {
                            "internalType": "address[]",
                            "name": "winners",
                            "type": "address[]"
                        }
                    ],
                    "internalType": "struct Lotto",
                    "name": "",
                    "type": "tuple"
                }
            ],
            "stateMutability": "view",
            "type": "function"
        },
        {
            "inputs": [
                {
                    "internalType": "uint256",
                    "name": "potId",
                    "type": "uint256"
                }
            ],
            "name": "getPotById",
            "outputs": [
                {
                    "components": [
                        {
                            "components": [
                                {
                                    "internalType": "uint256",
                                    "name": "id",
                                    "type": "uint256"
                                },
                                {
                                    "internalType": "address",
                                    "name": "creator",
                                    "type": "address"
                                },
                                {
                                    "internalType": "uint256",
                                    "name": "numberOfWinners",
                                    "type": "uint256"
                                },
                                {
                                    "internalType": "uint256[]",
                                    "name": "winnersShares",
                                    "type": "uint256[]"
                                },
                                {
                                    "internalType": "uint256",
                                    "name": "startTime",
                                    "type": "uint256"
                                },
                                {
                                    "internalType": "uint256",
                                    "name": "endTime",
                                    "type": "uint256"
                                },
                                {
                                    "internalType": "uint256",
                                    "name": "maxNumberOfPlayers",
                                    "type": "uint256"
                                },
                                {
                                    "internalType": "uint256",
                                    "name": "betAmount",
                                    "type": "uint256"
                                },
                                {
                                    "internalType": "enum WinningType",
                                    "name": "winningType",
                                    "type": "uint8"
                                },
                                {
                                    "internalType": "uint256[]",
                                    "name": "winnings",
                                    "type": "uint256[]"
                                },
                                {
                                    "internalType": "bool",
                                    "name": "isFinished",
                                    "type": "bool"
                                },
                                {
                                    "internalType": "uint256",
                                    "name": "stakes",
                                    "type": "uint256"
                                },
                                {
                                    "internalType": "address[]",
                                    "name": "players",
                                    "type": "address[]"
                                },
                                {
                                    "internalType": "address[]",
                                    "name": "winners",
                                    "type": "address[]"
                                }
                            ],
                            "internalType": "struct Lotto",
                            "name": "lotto",
                            "type": "tuple"
                        },
                        {
                            "internalType": "uint256",
                            "name": "potAmount",
                            "type": "uint256"
                        },
                        {
                            "internalType": "uint256[]",
                            "name": "winningNumbers",
                            "type": "uint256[]"
                        },
                        {
                            "internalType": "enum PotGuessType",
                            "name": "potGuessType",
                            "type": "uint8"
                        }
                    ],
                    "internalType": "struct Pot",
                    "name": "",
                    "type": "tuple"
                }
            ],
            "stateMutability": "view",
            "type": "function"
        },
        {
            "inputs": [],
            "name": "getTime",
            "outputs": [
                {
                    "internalType": "uint256",
                    "name": "",
                    "type": "uint256"
                }
            ],
            "stateMutability": "view",
            "type": "function"
        },
        {
            "inputs": [
                {
                    "internalType": "uint256",
                    "name": "lottoId",
                    "type": "uint256"
                }
            ],
            "name": "playLotto",
            "outputs": [],
            "stateMutability": "payable",
            "type": "function"
        },
        {
            "inputs": [
                {
                    "internalType": "uint256",
                    "name": "potId",
                    "type": "uint256"
                },
                {
                    "internalType": "uint256[]",
                    "name": "guesses",
                    "type": "uint256[]"
                }
            ],
            "name": "playPot",
            "outputs": [],
            "stateMutability": "payable",
            "type": "function"
        }
    ],
    "bytecode": "6080604052600180546001600160a01b03191690553480156200002157600080fd5b506040516200179a3803806200179a833981016040819052620000449162000165565b60008054336001600160a01b031991821681179092556001805482166001600160a01b03861690811790915560028054909216811790915560405163342977ad60e11b8152306004820152602481019290925290636852ef5a90604401600060405180830381600087803b158015620000bc57600080fd5b505af1158015620000d1573d6000803e3d6000fd5b5050600254600054604051632bdd247f60e11b81526001600160a01b0386811660048301529182166024820152911692506357ba48fe9150604401600060405180830381600087803b1580156200012757600080fd5b505af11580156200013c573d6000803e3d6000fd5b5050505050506200019c565b80516001600160a01b03811681146200016057600080fd5b919050565b6000806040838503121562000178578182fd5b620001838362000148565b9150620001936020840162000148565b90509250929050565b6115ee80620001ac6000396000f3fe6080604052600436106100915760003560e01c80638e6fd9d9116100595780638e6fd9d91461011c5780639d11f98214610149578063ba5c990e1461015c578063e57ee96d14610189578063f93edfc41461019c57600080fd5b806301868db614610096578063307f6b12146100b8578063379607f5146100d6578063557ed1ba146100e95780635b11b1ad14610109575b600080fd5b3480156100a257600080fd5b506100b66100b1366004611192565b6101af565b005b3480156100c457600080fd5b506100b66100d3366004611192565b50565b6100b66100e4366004611192565b6102d5565b3480156100f557600080fd5b506040514281526020015b60405180910390f35b6100b6610117366004611192565b6104f1565b34801561012857600080fd5b5061013c610137366004611192565b61060f565b60405161010091906113d4565b6100b66101573660046111aa565b61069d565b34801561016857600080fd5b5061017c610177366004611192565b6107ba565b60405161010091906113c1565b6100b6610197366004610fda565b610842565b6100b66101aa366004611048565b610941565b6000546040805160608101909152602b8082526001600160a01b0390921633149161158e6020830139906101ff5760405162461bcd60e51b81526004016101f6919061136e565b60405180910390fd5b5060025460405162c346db60e11b8152600481018390526001600160a01b03909116906301868db690602401602060405180830381600087803b15801561024557600080fd5b505af1158015610259573d6000803e3d6000fd5b505050506040513d601f19601f8201168201806040525081019061027d9190610fb7565b6040518060400160405280601781526020017f43616e206e6f7420666f72636520656e64206c6f74746f000000000000000000815250906102d15760405162461bcd60e51b81526004016101f6919061136e565b5050565b60025460405163677bd9ff60e01b81526004810183905233916001600160a01b03169063677bd9ff90602401602060405180830381600087803b15801561031b57600080fd5b505af115801561032f573d6000803e3d6000fd5b505050506040513d601f19601f820116820180604052508101906103539190610fb7565b61035c57600080fd5b600254604051634501977d60e11b8152600481018490526001600160a01b0383811660248301526000928392911690638a032efa90604401604080518083038186803b1580156103ab57600080fd5b505afa1580156103bf573d6000803e3d6000fd5b505050506040513d601f19601f820116820180604052508101906103e39190610f8a565b60408051808201909152601781527f436c61696d6572206973206e6f7420612077696e6e6572000000000000000000602082015291935091506001600160a01b0383166104435760405162461bcd60e51b81526004016101f6919061136e565b5060408051808201909152600f81526e57696e6e696e67206973207a65726f60881b6020820152816104885760405162461bcd60e51b81526004016101f6919061136e565b506040516001600160a01b0383169082156108fc029083906000818181858888f193505050501580156104bf573d6000803e3d6000fd5b5060405184907f7a355715549cfe7c1cba26304350343fbddc4b4f72d3ce3e7c27117dd20b5cb890600090a250505050565b60025460405163d86b24eb60e01b8152600481018390523460248201523360448201526000916001600160a01b03169063d86b24eb90606401602060405180830381600087803b15801561054457600080fd5b505af1158015610558573d6000803e3d6000fd5b505050506040513d601f19601f8201168201806040525081019061057c9190610fb7565b9050806040518060400160405280601e81526020017f526573756c742066726f6d20706c61794c6f74746f2069732066616c73650000815250906105d35760405162461bcd60e51b81526004016101f6919061136e565b50604051348152339083907fcab2b69c9bd52c70281e758caba2ed7bf9140474a8c3e81ceafa1eb0b303a22b9060200160405180910390a35050565b610617610a51565b600254604051638e6fd9d960e01b8152600481018490526001600160a01b0390911690638e6fd9d99060240160006040518083038186803b15801561065b57600080fd5b505afa15801561066f573d6000803e3d6000fd5b505050506040513d6000823e601f3d908101601f1916820160405261069791908101906110f5565b92915050565b600254604051630d297dcb60e11b81526000916001600160a01b031690631a52fb96906106d4908690349033908890600401611438565b602060405180830381600087803b1580156106ee57600080fd5b505af1158015610702573d6000803e3d6000fd5b505050506040513d601f19601f820116820180604052508101906107269190610fb7565b9050806040518060400160405280601c81526020017f526573756c742066726f6d20706c6179506f742069732066616c7365000000008152509061077d5760405162461bcd60e51b81526004016101f6919061136e565b50604051348152339084907fcab2b69c9bd52c70281e758caba2ed7bf9140474a8c3e81ceafa1eb0b303a22b9060200160405180910390a3505050565b6107c2610a9d565b600254604051635d2e4c8760e11b8152600481018490526001600160a01b039091169063ba5c990e9060240160006040518083038186803b15801561080657600080fd5b505afa15801561081a573d6000803e3d6000fd5b505050506040513d6000823e601f3d908101601f191682016040526106979190810190611015565b3460e0820152600254604051633f2872b960e11b81526000916001600160a01b031690637e50e572906108799085906004016113c1565b602060405180830381600087803b15801561089357600080fd5b505af11580156108a7573d6000803e3d6000fd5b505050506040513d601f19601f820116820180604052508101906108cb9190610fb7565b90508060405180606001604052806022815260200161156c60229139906109055760405162461bcd60e51b81526004016101f6919061136e565b507f1c4e016341d0d77afa35f02ddbeb7e8a7823d78665db60d081c09fa3af04f3e98260405161093591906113c1565b60405180910390a15050565b34602082015260025460405163163dce9d60e01b81526000916001600160a01b03169063163dce9d906109789085906004016113d4565b602060405180830381600087803b15801561099257600080fd5b505af11580156109a6573d6000803e3d6000fd5b505050506040513d601f19601f820116820180604052508101906109ca9190610fb7565b9050806040518060400160405280602081526020017f526573756c742066726f6d2073617665506f74206d757374206265207472756581525090610a215760405162461bcd60e51b81526004016101f6919061136e565b507fc78ad81c6dad387e30c8e4155720bb09beab0f4c69ea34e188c3ed73dbec499d8260405161093591906113d4565b6040518060800160405280610a64610a9d565b8152602001600081526020016060815260200160006001811115610a9857634e487b7160e01b600052602160045260246000fd5b905290565b604051806101c001604052806000815260200160006001600160a01b0316815260200160008152602001606081526020016000815260200160008152602001600081526020016000815260200160006001811115610b0b57634e487b7160e01b600052602160045260246000fd5b8152602001606081526020016000151581526020016000815260200160608152602001606081525090565b8035610b418161153b565b919050565b8051610b418161153b565b600082601f830112610b61578081fd5b81356020610b76610b71836114e3565b6114b2565b80838252828201915082860187848660051b8901011115610b95578586fd5b855b85811015610bbc578135610baa8161153b565b84529284019290840190600101610b97565b5090979650505050505050565b600082601f830112610bd9578081fd5b81516020610be9610b71836114e3565b80838252828201915082860187848660051b8901011115610c08578586fd5b855b85811015610bbc578151610c1d8161153b565b84529284019290840190600101610c0a565b600082601f830112610c3f578081fd5b81356020610c4f610b71836114e3565b80838252828201915082860187848660051b8901011115610c6e578586fd5b855b85811015610bbc57813584529284019290840190600101610c70565b600082601f830112610c9c578081fd5b81516020610cac610b71836114e3565b80838252828201915082860187848660051b8901011115610ccb578586fd5b855b85811015610bbc57815184529284019290840190600101610ccd565b8035610b4181611550565b8051610b4181611550565b8035610b418161155e565b8051610b418161155e565b60006101c08284031215610d27578081fd5b610d2f611465565b905081358152610d4160208301610b36565b602082015260408201356040820152606082013567ffffffffffffffff80821115610d6b57600080fd5b610d7785838601610c2f565b60608401526080840135608084015260a084013560a084015260c084013560c084015260e084013560e08401526101009150610db4828501610cff565b8284015261012091508184013581811115610dce57600080fd5b610dda86828701610c2f565b83850152506101409150610def828501610ce9565b828401526101609150818401358284015261018091508184013581811115610e1657600080fd5b610e2286828701610b51565b83850152506101a091508184013581811115610e3d57600080fd5b610e4986828701610b51565b8385015250505092915050565b60006101c08284031215610e68578081fd5b610e70611465565b905081518152610e8260208301610b46565b602082015260408201516040820152606082015167ffffffffffffffff80821115610eac57600080fd5b610eb885838601610c8c565b60608401526080840151608084015260a084015160a084015260c084015160c084015260e084015160e08401526101009150610ef5828501610d0a565b8284015261012091508184015181811115610f0f57600080fd5b610f1b86828701610c8c565b83850152506101409150610f30828501610cf4565b828401526101609150818401518284015261018091508184015181811115610f5757600080fd5b610f6386828701610bc9565b83850152506101a091508184015181811115610f7e57600080fd5b610e4986828701610bc9565b60008060408385031215610f9c578182fd5b8251610fa78161153b565b6020939093015192949293505050565b600060208284031215610fc8578081fd5b8151610fd381611550565b9392505050565b600060208284031215610feb578081fd5b813567ffffffffffffffff811115611001578182fd5b61100d84828501610d15565b949350505050565b600060208284031215611026578081fd5b815167ffffffffffffffff81111561103c578182fd5b61100d84828501610e56565b600060208284031215611059578081fd5b813567ffffffffffffffff80821115611070578283fd5b9083019060808286031215611083578283fd5b61108b61148f565b823582811115611099578485fd5b6110a587828601610d15565b825250602083013560208201526040830135828111156110c3578485fd5b6110cf87828601610c2f565b604083015250606083013592506110e58361155e565b6060810192909252509392505050565b600060208284031215611106578081fd5b815167ffffffffffffffff8082111561111d578283fd5b9083019060808286031215611130578283fd5b61113861148f565b825182811115611146578485fd5b61115287828601610e56565b82525060208301516020820152604083015182811115611170578485fd5b61117c87828601610c8c565b604083015250606083015192506110e58361155e565b6000602082840312156111a3578081fd5b5035919050565b600080604083850312156111bc578182fd5b82359150602083013567ffffffffffffffff8111156111d9578182fd5b6111e585828601610c2f565b9150509250929050565b6000815180845260208085019450808401835b838110156112275781516001600160a01b031687529582019590820190600101611202565b509495945050505050565b6000815180845260208085019450808401835b8381101561122757815187529582019590820190600101611245565b61126a8161151d565b9052565b60006101c082518452602083015161129160208601826001600160a01b03169052565b506040830151604085015260608301518160608601526112b382860182611232565b9150506080830151608085015260a083015160a085015260c083015160c085015260e083015160e0850152610100808401516112f182870182611261565b5050610120808401518583038287015261130b8382611232565b92505050610140808401516113238287018215159052565b50506101608381015190850152610180808401518583038287015261134883826111ef565b925050506101a0808401518583038287015261136483826111ef565b9695505050505050565b6000602080835283518082850152825b8181101561139a5785810183015185820160400152820161137e565b818111156113ab5783604083870101525b50601f01601f1916929092016040019392505050565b602081526000610fd3602083018461126e565b6020815260008251608060208401526113f060a084018261126e565b9050602084015160408401526040840151601f198483030160608501526114178282611232565b91505060608401516114288161151d565b6080939093019290925250919050565b84815283602082015260018060a01b03831660408201526080606082015260006113646080830184611232565b6040516101c0810167ffffffffffffffff8111828210171561148957611489611507565b60405290565b6040516080810167ffffffffffffffff8111828210171561148957611489611507565b604051601f8201601f1916810167ffffffffffffffff811182821017156114db576114db611507565b604052919050565b600067ffffffffffffffff8211156114fd576114fd611507565b5060051b60200190565b634e487b7160e01b600052604160045260246000fd5b600281106100d357634e487b7160e01b600052602160045260246000fd5b6001600160a01b03811681146100d357600080fd5b80151581146100d357600080fd5b600281106100d357600080fdfe526573756c742066726f6d20736176654c6f74746f206d75737420626520747275654f6e6c792063726561746f722063616e20666f72636520656e642074696d65206261736564206c6f74746fa26469706673582212202237a063b78fbe3267fe67b15e742339228c12785672b1998bd69096a2ea385864736f6c63430008040033",
    "sourcePath": "/Users/aardvocate/src/idempotent/grotto/grotto-contracts/contracts/grotto.sol",
    "compiler": {
        "name": "solc",
        "version": "0.8.4+commit.c7e474f2"
    },
    "functionHashes": {
        "claim(uint256)": "379607f5",
        "createLotto((uint256,address,uint256,uint256[],uint256,uint256,uint256,uint256,uint8,uint256[],bool,uint256,address[],address[]))": "e57ee96d",
        "createPot(((uint256,address,uint256,uint256[],uint256,uint256,uint256,uint256,uint8,uint256[],bool,uint256,address[],address[]),uint256,uint256[],uint8))": "f93edfc4",
        "findWinners(uint256)": "307f6b12",
        "forceEndLotto(uint256)": "01868db6",
        "getLottoById(uint256)": "ba5c990e",
        "getPotById(uint256)": "8e6fd9d9",
        "getTime()": "557ed1ba",
        "playLotto(uint256)": "5b11b1ad",
        "playPot(uint256,uint256[])": "9d11f982"
    },
    "gasEstimates": {
        "creation": {
            "codeDepositCost": "1122800",
            "executionCost": "infinite",
            "totalCost": "infinite"
        },
        "external": {
            "claim(uint256)": "infinite",
            "createLotto((uint256,address,uint256,uint256[],uint256,uint256,uint256,uint256,uint8,uint256[],bool,uint256,address[],address[]))": "infinite",
            "createPot(((uint256,address,uint256,uint256[],uint256,uint256,uint256,uint256,uint8,uint256[],bool,uint256,address[],address[]),uint256,uint256[],uint8))": "infinite",
            "findWinners(uint256)": "234",
            "forceEndLotto(uint256)": "infinite",
            "getLottoById(uint256)": "infinite",
            "getPotById(uint256)": "infinite",
            "getTime()": "232",
            "playLotto(uint256)": "infinite",
            "playPot(uint256,uint256[])": "infinite"
        }
    }
}