{
    "contractName": "Storage",
    "abi": [
        {
            "inputs": [
                {
                    "components": [
                        {
                            "internalType": "uint256",
                            "name": "id",
                            "type": "uint256"
                        },
                        {
                            "internalType": "address",
                            "name": "creator",
                            "type": "address"
                        },
                        {
                            "internalType": "uint256",
                            "name": "numberOfWinners",
                            "type": "uint256"
                        },
                        {
                            "internalType": "uint256[]",
                            "name": "winnersShares",
                            "type": "uint256[]"
                        },
                        {
                            "internalType": "uint256",
                            "name": "startTime",
                            "type": "uint256"
                        },
                        {
                            "internalType": "uint256",
                            "name": "endTime",
                            "type": "uint256"
                        },
                        {
                            "internalType": "uint256",
                            "name": "maxNumberOfPlayers",
                            "type": "uint256"
                        },
                        {
                            "internalType": "uint256",
                            "name": "betAmount",
                            "type": "uint256"
                        },
                        {
                            "internalType": "enum WinningType",
                            "name": "winningType",
                            "type": "uint8"
                        },
                        {
                            "internalType": "uint256[]",
                            "name": "winnings",
                            "type": "uint256[]"
                        },
                        {
                            "internalType": "bool",
                            "name": "isFinished",
                            "type": "bool"
                        },
                        {
                            "internalType": "uint256",
                            "name": "stakes",
                            "type": "uint256"
                        },
                        {
                            "internalType": "address[]",
                            "name": "players",
                            "type": "address[]"
                        },
                        {
                            "internalType": "address[]",
                            "name": "winners",
                            "type": "address[]"
                        }
                    ],
                    "internalType": "struct Lotto",
                    "name": "_lotto",
                    "type": "tuple"
                }
            ],
            "name": "addNewLotto",
            "outputs": [
                {
                    "internalType": "bool",
                    "name": "",
                    "type": "bool"
                }
            ],
            "stateMutability": "nonpayable",
            "type": "function"
        },
        {
            "inputs": [
                {
                    "components": [
                        {
                            "components": [
                                {
                                    "internalType": "uint256",
                                    "name": "id",
                                    "type": "uint256"
                                },
                                {
                                    "internalType": "address",
                                    "name": "creator",
                                    "type": "address"
                                },
                                {
                                    "internalType": "uint256",
                                    "name": "numberOfWinners",
                                    "type": "uint256"
                                },
                                {
                                    "internalType": "uint256[]",
                                    "name": "winnersShares",
                                    "type": "uint256[]"
                                },
                                {
                                    "internalType": "uint256",
                                    "name": "startTime",
                                    "type": "uint256"
                                },
                                {
                                    "internalType": "uint256",
                                    "name": "endTime",
                                    "type": "uint256"
                                },
                                {
                                    "internalType": "uint256",
                                    "name": "maxNumberOfPlayers",
                                    "type": "uint256"
                                },
                                {
                                    "internalType": "uint256",
                                    "name": "betAmount",
                                    "type": "uint256"
                                },
                                {
                                    "internalType": "enum WinningType",
                                    "name": "winningType",
                                    "type": "uint8"
                                },
                                {
                                    "internalType": "uint256[]",
                                    "name": "winnings",
                                    "type": "uint256[]"
                                },
                                {
                                    "internalType": "bool",
                                    "name": "isFinished",
                                    "type": "bool"
                                },
                                {
                                    "internalType": "uint256",
                                    "name": "stakes",
                                    "type": "uint256"
                                },
                                {
                                    "internalType": "address[]",
                                    "name": "players",
                                    "type": "address[]"
                                },
                                {
                                    "internalType": "address[]",
                                    "name": "winners",
                                    "type": "address[]"
                                }
                            ],
                            "internalType": "struct Lotto",
                            "name": "lotto",
                            "type": "tuple"
                        },
                        {
                            "internalType": "uint256",
                            "name": "potAmount",
                            "type": "uint256"
                        },
                        {
                            "internalType": "uint256[]",
                            "name": "winningNumbers",
                            "type": "uint256[]"
                        },
                        {
                            "internalType": "enum PotGuessType",
                            "name": "potGuessType",
                            "type": "uint8"
                        }
                    ],
                    "internalType": "struct Pot",
                    "name": "_pot",
                    "type": "tuple"
                }
            ],
            "name": "addNewPot",
            "outputs": [
                {
                    "internalType": "bool",
                    "name": "",
                    "type": "bool"
                }
            ],
            "stateMutability": "nonpayable",
            "type": "function"
        },
        {
            "inputs": [
                {
                    "internalType": "uint256",
                    "name": "_lottoId",
                    "type": "uint256"
                }
            ],
            "name": "claimWinnings",
            "outputs": [
                {
                    "internalType": "bool",
                    "name": "",
                    "type": "bool"
                }
            ],
            "stateMutability": "nonpayable",
            "type": "function"
        },
        {
            "inputs": [
                {
                    "internalType": "uint256",
                    "name": "_lottoId",
                    "type": "uint256"
                },
                {
                    "internalType": "address",
                    "name": "_claimer",
                    "type": "address"
                }
            ],
            "name": "findClaimer",
            "outputs": [
                {
                    "internalType": "address",
                    "name": "",
                    "type": "address"
                },
                {
                    "internalType": "uint256",
                    "name": "",
                    "type": "uint256"
                }
            ],
            "stateMutability": "view",
            "type": "function"
        },
        {
            "inputs": [
                {
                    "internalType": "uint256",
                    "name": "_lottoId",
                    "type": "uint256"
                }
            ],
            "name": "forceEndLotto",
            "outputs": [
                {
                    "internalType": "bool",
                    "name": "",
                    "type": "bool"
                }
            ],
            "stateMutability": "nonpayable",
            "type": "function"
        },
        {
            "inputs": [
                {
                    "internalType": "uint256",
                    "name": "_lottoId",
                    "type": "uint256"
                }
            ],
            "name": "getLottoById",
            "outputs": [
                {
                    "components": [
                        {
                            "internalType": "uint256",
                            "name": "id",
                            "type": "uint256"
                        },
                        {
                            "internalType": "address",
                            "name": "creator",
                            "type": "address"
                        },
                        {
                            "internalType": "uint256",
                            "name": "numberOfWinners",
                            "type": "uint256"
                        },
                        {
                            "internalType": "uint256[]",
                            "name": "winnersShares",
                            "type": "uint256[]"
                        },
                        {
                            "internalType": "uint256",
                            "name": "startTime",
                            "type": "uint256"
                        },
                        {
                            "internalType": "uint256",
                            "name": "endTime",
                            "type": "uint256"
                        },
                        {
                            "internalType": "uint256",
                            "name": "maxNumberOfPlayers",
                            "type": "uint256"
                        },
                        {
                            "internalType": "uint256",
                            "name": "betAmount",
                            "type": "uint256"
                        },
                        {
                            "internalType": "enum WinningType",
                            "name": "winningType",
                            "type": "uint8"
                        },
                        {
                            "internalType": "uint256[]",
                            "name": "winnings",
                            "type": "uint256[]"
                        },
                        {
                            "internalType": "bool",
                            "name": "isFinished",
                            "type": "bool"
                        },
                        {
                            "internalType": "uint256",
                            "name": "stakes",
                            "type": "uint256"
                        },
                        {
                            "internalType": "address[]",
                            "name": "players",
                            "type": "address[]"
                        },
                        {
                            "internalType": "address[]",
                            "name": "winners",
                            "type": "address[]"
                        }
                    ],
                    "internalType": "struct Lotto",
                    "name": "",
                    "type": "tuple"
                }
            ],
            "stateMutability": "view",
            "type": "function"
        },
        {
            "inputs": [
                {
                    "internalType": "uint256",
                    "name": "_potId",
                    "type": "uint256"
                }
            ],
            "name": "getPotById",
            "outputs": [
                {
                    "components": [
                        {
                            "components": [
                                {
                                    "internalType": "uint256",
                                    "name": "id",
                                    "type": "uint256"
                                },
                                {
                                    "internalType": "address",
                                    "name": "creator",
                                    "type": "address"
                                },
                                {
                                    "internalType": "uint256",
                                    "name": "numberOfWinners",
                                    "type": "uint256"
                                },
                                {
                                    "internalType": "uint256[]",
                                    "name": "winnersShares",
                                    "type": "uint256[]"
                                },
                                {
                                    "internalType": "uint256",
                                    "name": "startTime",
                                    "type": "uint256"
                                },
                                {
                                    "internalType": "uint256",
                                    "name": "endTime",
                                    "type": "uint256"
                                },
                                {
                                    "internalType": "uint256",
                                    "name": "maxNumberOfPlayers",
                                    "type": "uint256"
                                },
                                {
                                    "internalType": "uint256",
                                    "name": "betAmount",
                                    "type": "uint256"
                                },
                                {
                                    "internalType": "enum WinningType",
                                    "name": "winningType",
                                    "type": "uint8"
                                },
                                {
                                    "internalType": "uint256[]",
                                    "name": "winnings",
                                    "type": "uint256[]"
                                },
                                {
                                    "internalType": "bool",
                                    "name": "isFinished",
                                    "type": "bool"
                                },
                                {
                                    "internalType": "uint256",
                                    "name": "stakes",
                                    "type": "uint256"
                                },
                                {
                                    "internalType": "address[]",
                                    "name": "players",
                                    "type": "address[]"
                                },
                                {
                                    "internalType": "address[]",
                                    "name": "winners",
                                    "type": "address[]"
                                }
                            ],
                            "internalType": "struct Lotto",
                            "name": "lotto",
                            "type": "tuple"
                        },
                        {
                            "internalType": "uint256",
                            "name": "potAmount",
                            "type": "uint256"
                        },
                        {
                            "internalType": "uint256[]",
                            "name": "winningNumbers",
                            "type": "uint256[]"
                        },
                        {
                            "internalType": "enum PotGuessType",
                            "name": "potGuessType",
                            "type": "uint8"
                        }
                    ],
                    "internalType": "struct Pot",
                    "name": "",
                    "type": "tuple"
                }
            ],
            "stateMutability": "view",
            "type": "function"
        },
        {
            "inputs": [
                {
                    "internalType": "uint256",
                    "name": "_lottoId",
                    "type": "uint256"
                },
                {
                    "internalType": "uint256",
                    "name": "_betPlaced",
                    "type": "uint256"
                },
                {
                    "internalType": "address",
                    "name": "_player",
                    "type": "address"
                }
            ],
            "name": "playLotto",
            "outputs": [
                {
                    "internalType": "bool",
                    "name": "",
                    "type": "bool"
                }
            ],
            "stateMutability": "nonpayable",
            "type": "function"
        },
        {
            "inputs": [
                {
                    "internalType": "uint256",
                    "name": "_potId",
                    "type": "uint256"
                },
                {
                    "internalType": "uint256",
                    "name": "_betPlaced",
                    "type": "uint256"
                },
                {
                    "internalType": "address",
                    "name": "_player",
                    "type": "address"
                },
                {
                    "internalType": "uint256[]",
                    "name": "_guesses",
                    "type": "uint256[]"
                }
            ],
            "name": "playPot",
            "outputs": [
                {
                    "internalType": "bool",
                    "name": "",
                    "type": "bool"
                }
            ],
            "stateMutability": "nonpayable",
            "type": "function"
        },
        {
            "inputs": [
                {
                    "internalType": "address",
                    "name": "_grotto",
                    "type": "address"
                },
                {
                    "internalType": "address",
                    "name": "_grottoCaller",
                    "type": "address"
                }
            ],
            "name": "setGrotto",
            "outputs": [],
            "stateMutability": "nonpayable",
            "type": "function"
        },
        {
            "inputs": [
                {
                    "internalType": "address",
                    "name": "_owner",
                    "type": "address"
                },
                {
                    "internalType": "address",
                    "name": "_grottoCaller",
                    "type": "address"
                }
            ],
            "name": "setPlatformOwner",
            "outputs": [],
            "stateMutability": "nonpayable",
            "type": "function"
        }
    ],
    "bytecode": "6080604052600080546001600160a01b03199081169091556001805482169055600280549091169055600a600381905560045534801561003e57600080fd5b506132548061004e6000396000f3fe608060405234801561001057600080fd5b50600436106100a95760003560e01c80636852ef5a116100715780636852ef5a146101355780637e50e572146101485780638a032efa1461015b5780638e6fd9d9146101c6578063ba5c990e146101e6578063d86b24eb1461020657600080fd5b806301868db6146100ae578063163dce9d146100e75780631a52fb96146100fa57806357ba48fe1461010d578063677bd9ff14610122575b600080fd5b6100d26100bc366004612b07565b6000908152600a60205260409020429055600190565b60405190151581526020015b60405180910390f35b6100d26100f5366004612a5a565b610219565b6100d2610108366004612b75565b610943565b61012061011b3660046129ed565b610d04565b005b6100d2610130366004612b07565b610dc4565b6101206101433660046129ed565b610ead565b6100d2610156366004612a1f565b610f37565b6101a7610169366004612b1f565b60008281526013602090815260408083206001600160a01b039485168085529083528184205495845260158352818420908452909152902054911691565b604080516001600160a01b0390931683526020830191909152016100de565b6101d96101d4366004612b07565b6113ef565b6040516100de9190612e0a565b6101f96101f4366004612b07565b611799565b6040516100de9190612df7565b6100d2610214366004612b41565b611a8b565b60008054604080516060810190915260388082526001600160a01b0390921633149161309660208301399061026a5760405162461bcd60e51b81526004016102619190612da4565b60405180910390fd5b50816000015160008160e001511160405180606001604052806028815260200161306e60289139906102af5760405162461bcd60e51b81526004016102619190612da4565b50602080820151825160009081526006835260409081902054815160608101909252602d8083526001600160a01b03918216919093161415929091906131cc90830139906103105760405162461bcd60e51b81526004016102619190612da4565b5080606001515181604001511460405180606001604052806034815260200161317060349139906103545760405162461bcd60e51b81526004016102619190612da4565b50600a8160400151111560405180606001604052806026815260200161304860269139906103955760405162461bcd60e51b81526004016102619190612da4565b506000805b82604001518110156103f8576103e4836060015182815181106103cd57634e487b7160e01b600052603260045260246000fd5b602002602001015183611e4990919063ffffffff16565b91506103f1816001611e49565b905061039a565b508060641460405180606001604052806036815260200161301260369139906104345760405162461bcd60e51b81526004016102619190612da4565b506000826101000151600181111561045c57634e487b7160e01b600052602160045260246000fd5b1415610502578160a001518260800151106040518060600160405280602581526020016130ce60259139906104a45760405162461bcd60e51b81526004016102619190612da4565b50428260a00151116040518060400160405280601e81526020017f456e642074696d65206d75737420626520696e20746865206675747572650000815250906105005760405162461bcd60e51b81526004016102619190612da4565b505b6001826101000151600181111561052957634e487b7160e01b600052602160045260246000fd5b14156105705760008260c00151116040518060600160405280602881526020016131a4602891399061056e5760405162461bcd60e51b81526004016102619190612da4565b505b8351602080820151915160009081526006825260409081902054815160608101909252602d80835288946001600160a01b0392831692169190911415926131cc90830139906105d25760405162461bcd60e51b81526004016102619190612da4565b5060008160200151116040518060600160405280602481526020016130f360249139906106125760405162461bcd60e51b81526004016102619190612da4565b506000816040015151116040518060600160405280602681526020016131f960269139906106535760405162461bcd60e51b81526004016102619190612da4565b50600a816040015151111560405180606001604052806028815260200161314860289139906106955760405162461bcd60e51b81526004016102619190612da4565b50845151600081815260056020908152604080832093909355875180820151905183526006825283832080546001600160a01b0319166001600160a01b039092169190911790558751808401519051835260078252838320558751606081015190518352600882529290912082516107139391929190910190612608565b50845160808101519051600090815260096020908152604080832093909355875160a081015190518352600a825283832055875160c081015190518352600b825283832055875160e081015190518352600c825283832055875161010081015190518352600d909152919020805460ff1916600183818111156107a657634e487b7160e01b600052602160045260246000fd5b0217905550845161014081015190516000908152600e60209081526040808320805460ff1916941515949094179093558751610160810151905183526010825283832055875161018081015190518352601182529290912082516108109391929190910190612653565b5060208086015186515160009081526016835260408082209290925581880151885151825260178452919020815161084d93919290910190612608565b5060005b8560400151518110156108d95785515160009081526018602052604080822090880151805160019391908590811061089957634e487b7160e01b600052603260045260246000fd5b6020026020010151815260200190815260200160002060006101000a81548160ff02191690831515021790555080806108d190612f72565b915050610851565b5060608501518551516000908152601a60205260409020805460ff19166001838181111561091757634e487b7160e01b600052602160045260246000fd5b0217905550509251516000908152601960205260409020805460ff191660019081179091559392505050565b60008481526006602090815260408083205481518083019092526014825273131bdd1d1bc8191bd95cc81b9bdd08195e1a5cdd60621b928201929092528691869186916001600160a01b03166109ac5760405162461bcd60e51b81526004016102619190612da4565b506000838152600e60209081526040918290205482518084019093526011835270131bdd1d1bc81a5cc8199a5b9a5cda1959607a1b9183019190915260ff1615610a095760405162461bcd60e51b81526004016102619190612da4565b50600c60008481526020019081526020016000205482101560405180604001604052806014815260200173426574506c6163656420697320746f6f206c6f7760601b81525090610a6c5760405162461bcd60e51b81526004016102619190612da4565b50600083815260066020908152604091829020548251808401909352601483527343726561746f722063616e206e6f7420706c617960601b918301919091526001600160a01b0383811691161415610ad75760405162461bcd60e51b81526004016102619190612da4565b5087600080828152600d602052604090205460ff166001811115610b0b57634e487b7160e01b600052602160045260246000fd5b1415610be457426009600083815260200190815260200160002054111560405180604001604052806014815260200173131bdd1d1bc81a5cc81b9bdd081cdd185c9d195960621b81525090610b735760405162461bcd60e51b81526004016102619190612da4565b5042600a600083815260200190815260200160002054116040518060400160405280601a81526020017f4c6f74746f20686173207265616368656420656e642074696d6500000000000081525090610bde5760405162461bcd60e51b81526004016102619190612da4565b50610c8d565b60016000828152600d602052604090205460ff166001811115610c1757634e487b7160e01b600052602160045260246000fd5b1415610c8d576000818152600b60209081526040808320546011835292819020548151808301909252601d82527f4d6178204e756d626572206f6620506c61796572732072656163686564000000928201929092529111610c8b5760405162461bcd60e51b81526004016102619190612da4565b505b600089815260106020526040902054610ca69089611e49565b60008a8152601060209081526040808320939093556011815291812080546001810182559082529190200180546001600160a01b0319166001600160a01b038916179055610cf5898888611e5c565b50600198975050505050505050565b6000546001600160a01b0316158015610d2657506001546001600160a01b0316155b15610d5957600280546001600160a01b039384166001600160a01b03199182161790915560018054929093169116179055565b6001546001600160a01b0382811691161415610d8e57600280546001600160a01b0319166001600160a01b0384161790555050565b6040518060600160405280603181526020016131176031913960405162461bcd60e51b81526004016102619190612da4565b5050565b6000818152600e602090815260408083205481518083019092526015825274131bdd1d1bc81a5cc81b9bdd08199a5b9a5cda1959605a1b928201929092529060ff16610e235760405162461bcd60e51b81526004016102619190612da4565b506000828152600f6020908152604091829020548251808401909352601883527f4c6f74746f20697320616c726561647920636c61696d656400000000000000009183019190915260ff1615610e8c5760405162461bcd60e51b81526004016102619190612da4565b50506000908152600f60205260409020805460ff1916600190811790915590565b6000546001600160a01b0316158015610ecf57506001546001600160a01b0316155b15610f0257600080546001600160a01b039384166001600160a01b03199182161790915560018054929093169116179055565b6001546001600160a01b0382811691161415610d8e57600080546001600160a01b0319166001600160a01b0384161790555050565b60008054604080516060810190915260388082526001600160a01b03909216331491613096602083013990610f7f5760405162461bcd60e51b81526004016102619190612da4565b508160008160e001511160405180606001604052806028815260200161306e6028913990610fc05760405162461bcd60e51b81526004016102619190612da4565b50602080820151825160009081526006835260409081902054815160608101909252602d8083526001600160a01b03918216919093161415929091906131cc90830139906110215760405162461bcd60e51b81526004016102619190612da4565b5080606001515181604001511460405180606001604052806034815260200161317060349139906110655760405162461bcd60e51b81526004016102619190612da4565b50600a8160400151111560405180606001604052806026815260200161304860269139906110a65760405162461bcd60e51b81526004016102619190612da4565b506000805b82604001518110156110f2576110de836060015182815181106103cd57634e487b7160e01b600052603260045260246000fd5b91506110eb816001611e49565b90506110ab565b5080606414604051806060016040528060368152602001613012603691399061112e5760405162461bcd60e51b81526004016102619190612da4565b506000826101000151600181111561115657634e487b7160e01b600052602160045260246000fd5b14156111fc578160a001518260800151106040518060600160405280602581526020016130ce602591399061119e5760405162461bcd60e51b81526004016102619190612da4565b50428260a00151116040518060400160405280601e81526020017f456e642074696d65206d75737420626520696e20746865206675747572650000815250906111fa5760405162461bcd60e51b81526004016102619190612da4565b505b6001826101000151600181111561122357634e487b7160e01b600052602160045260246000fd5b141561126a5760008260c00151116040518060600160405280602881526020016131a460289139906112685760405162461bcd60e51b81526004016102619190612da4565b505b835160008181526005602090815260408083209390935580870151875183526006825283832080546001600160a01b0319166001600160a01b0390921691909117905582870151875183526007825283832055606087015187518352600882529290912082516112e09391929190910190612608565b506080840151845160009081526009602090815260408083209390935560a087015187518352600a82528383205560c087015187518352600b82528383205560e087015187518352600c82528383205561010087015187518352600d909152919020805460ff19166001838181111561136957634e487b7160e01b600052602160045260246000fd5b021790555061014084015184516000908152600e60209081526040808320805460ff19169415159490941790935561016087015187518352601082528383205561018087015187518352601182529290912082516113cd9391929190910190612653565b505091516000908152601960205260409020805460ff19169055506001919050565b6113f76126a8565b600082815260196020908152604091829020548251808401909352601b83527f494420537570706c696564206973206e6f74206120706f7420696400000000009183019190915260ff1661145e5760405162461bcd60e51b81526004016102619190612da4565b50604080516101c08101825260008481526005602090815283822054835285825260068152838220546001600160a01b0316818401528582526007815283822054838501528582526008815283822080548551818402810184019096528086529294606085019390928301828280156114f657602002820191906000526020600020905b8154815260200190600101908083116114e2575b505050918352505060008581526009602090815260408083205482850152878352600a82528083205481850152878352600b8252808320546060850152878352600c8252808320546080850152878352600d90915290205460a09091019060ff16600181111561157657634e487b7160e01b600052602160045260246000fd5b815260008581526014602090815260409182902080548351818402810184019094528084529382019390918301828280156115d057602002820191906000526020600020905b8154815260200190600101908083116115bc575b50505091835250506000858152600e602090815260408083205460ff1615158285015287835260108252808320548185015287835260118252918290208054835181840281018401909452808452606090940193909183018282801561165f57602002820191906000526020600020905b81546001600160a01b03168152600190910190602001808311611641575b50505050508152602001601260008681526020019081526020016000208054806020026020016040519081016040528092919081815260200182805480156116d057602002820191906000526020600020905b81546001600160a01b031681526001909101906020018083116116b2575b50505091909252505060408051608081018252828152600086815260166020908152838220548184015287825260178152838220805485518184028101840187528181529697509295939485019392909183018282801561175057602002820191906000526020600020905b81548152602001906001019080831161173c575b50505091835250506000868152601a602090815260409091205491019060ff16600181111561178f57634e487b7160e01b600052602160045260246000fd5b9052949350505050565b6117a16126f4565b600082815260196020908152604091829020548251808401909352601d83527f494420537570706c696564206973206e6f742061206c6f74746f2069640000009183019190915260ff16156118095760405162461bcd60e51b81526004016102619190612da4565b50604080516101c08101825260008481526005602090815283822054835285825260068152838220546001600160a01b031681840152858252600781528382205483850152858252600881529083902080548451818402810184019095528085529293606085019390928301828280156118a257602002820191906000526020600020905b81548152602001906001019080831161188e575b505050918352505060008481526009602090815260408083205482850152868352600a82528083205481850152868352600b8252808320546060850152868352600c8252808320546080850152868352600d90915290205460a09091019060ff16600181111561192257634e487b7160e01b600052602160045260246000fd5b8152600084815260146020908152604091829020805483518184028101840190945280845293820193909183018282801561197c57602002820191906000526020600020905b815481526020019060010190808311611968575b50505091835250506000848152600e602090815260408083205460ff16151582850152868352601082528083205481850152868352601182529182902080548351818402810184019094528084526060909401939091830182828015611a0b57602002820191906000526020600020905b81546001600160a01b031681526001909101906020018083116119ed575b5050505050815260200160126000858152602001908152602001600020805480602002602001604051908101604052809291908181526020018280548015611a7c57602002820191906000526020600020905b81546001600160a01b03168152600190910190602001808311611a5e575b50505050508152509050919050565b60008381526006602090815260408083205481518083019092526014825273131bdd1d1bc8191bd95cc81b9bdd08195e1a5cdd60621b928201929092528591859185916001600160a01b0316611af45760405162461bcd60e51b81526004016102619190612da4565b506000838152600e60209081526040918290205482518084019093526011835270131bdd1d1bc81a5cc8199a5b9a5cda1959607a1b9183019190915260ff1615611b515760405162461bcd60e51b81526004016102619190612da4565b50600c60008481526020019081526020016000205482101560405180604001604052806014815260200173426574506c6163656420697320746f6f206c6f7760601b81525090611bb45760405162461bcd60e51b81526004016102619190612da4565b50600083815260066020908152604091829020548251808401909352601483527343726561746f722063616e206e6f7420706c617960601b918301919091526001600160a01b0383811691161415611c1f5760405162461bcd60e51b81526004016102619190612da4565b5086600080828152600d602052604090205460ff166001811115611c5357634e487b7160e01b600052602160045260246000fd5b1415611d2c57426009600083815260200190815260200160002054111560405180604001604052806014815260200173131bdd1d1bc81a5cc81b9bdd081cdd185c9d195960621b81525090611cbb5760405162461bcd60e51b81526004016102619190612da4565b5042600a600083815260200190815260200160002054116040518060400160405280601a81526020017f4c6f74746f20686173207265616368656420656e642074696d6500000000000081525090611d265760405162461bcd60e51b81526004016102619190612da4565b50611dd5565b60016000828152600d602052604090205460ff166001811115611d5f57634e487b7160e01b600052602160045260246000fd5b1415611dd5576000818152600b60209081526040808320546011835292819020548151808301909252601d82527f4d6178204e756d626572206f6620506c61796572732072656163686564000000928201929092529111611dd35760405162461bcd60e51b81526004016102619190612da4565b505b600088815260106020526040902054611dee9088611e49565b6000898152601060209081526040808320939093556011815291812080546001810182559082529190200180546001600160a01b0319166001600160a01b038816179055611e3b88611f4f565b506001979650505050505050565b6000611e558284612f10565b9392505050565b6000838152600e6020526040902054429060ff16611f495760008481526019602052604090205460ff1615611f495760016000858152600d602052604090205460ff166001811115611ebe57634e487b7160e01b600052602160045260246000fd5b1480611ef857506000848152600d602052604081205460ff166001811115611ef657634e487b7160e01b600052602160045260246000fd5b145b8015611f3457506000848152600b60209081526040808320546011909252909120541480611f3457506000848152600a60205260409020548110155b15611f3e57611f49565b611f49848484612034565b50505050565b6000818152600e6020526040902054429060ff16610dc05760008281526019602052604090205460ff16610dc05760016000838152600d602052604090205460ff166001811115611fb057634e487b7160e01b600052602160045260246000fd5b1480611fea57506000828152600d602052604081205460ff166001811115611fe857634e487b7160e01b600052602160045260246000fd5b145b801561202657506000828152600b6020908152604080832054601190925290912054148061202657506000828152600a60205260409020548110155b15610dc057610dc0826122e6565b6001600080858152601a602052604090205460ff16600181111561206857634e487b7160e01b600052602160045260246000fd5b14156120f25760005b82518110156120ec576018600086815260200190815260200160002060008483815181106120af57634e487b7160e01b600052603260045260246000fd5b60209081029190910181015182528101919091526040016000205460ff166120da57600091506120ec565b806120e481612f72565b915050612071565b506121ba565b60016000858152601a602052604090205460ff16600181111561212557634e487b7160e01b600052602160045260246000fd5b14156121ba5760005b82518110156121b857600085815260176020526040902080548290811061216557634e487b7160e01b600052603260045260246000fd5b906000526020600020015483828151811061219057634e487b7160e01b600052603260045260246000fd5b6020026020010151146121a657600091506121b8565b806121b081612f72565b91505061212e565b505b8015611f495760008481526016602090815260408083205460109092528220546121e49190612f10565b905060006121fe60646121f884600a6125e4565b906125f0565b905061220a82826125fc565b60008781526012602090815260408083208054600181810183559185528385200180546001600160a01b03808d166001600160a01b031992831681179093558d8752601386528487208388528652848720805490921683179091558c86526014855283862080548085018255908752858720018790558c8652601585528386209186529084528285208690558b8552600e909352818420805460ff191690911790556002549051939550169183156108fc0291849190818181858888f193505050501580156122dd573d6000803e3d6000fd5b50505050505050565b6000818152601060205260408120549061230660646121f884600a6125e4565b905061231282826125fc565b915060005b600084815260076020526040902054811015612592576000848152601160205260408120546123479060026125f0565b600086815260116020526040812054919250906123659060016125fc565b905060006011600085815260200190815260200160002060405160200161238c9190612d86565b60408051601f198184030181528282528051602091820120600087815260118352929092209193506123c19284929101612d92565b60408051601f198184030181528282528051602091820120600086815260118352929092209193506123f69284929101612d92565b60408051808303601f19018152828252805160209182012060008b815260118352838120549285018b9052928401819052935090916060016040516020818303038152906040528051906020012060001c6124519190612f8d565b6000898152601160205260408120805492935090918390811061248457634e487b7160e01b600052603260045260246000fd5b60009182526020808320909101548b835260089091526040822080546001600160a01b0390921693506124f0916064916121f8918b9081106124d657634e487b7160e01b600052603260045260246000fd5b90600052602060002001548c6125e490919063ffffffff16565b60008b81526012602090815260408083208054600181810183559185528385200180546001600160a01b039098166001600160a01b031998891681179091558f8552601384528285208186528452828520805490981681179097558e84526014835281842080548083018255908552838520018590558e845260158352818420968452959091529020555061258b9450859350915050611e49565b9050612317565b506000838152600e6020526040808220805460ff1916600117905560025490516001600160a01b039091169183156108fc02918491818181858888f19350505050158015611f49573d6000803e3d6000fd5b6000611e558284612f3c565b6000611e558284612f28565b6000611e558284612f5b565b828054828255906000526020600020908101928215612643579160200282015b82811115612643578251825591602001919060010190612628565b5061264f92915061278d565b5090565b828054828255906000526020600020908101928215612643579160200282015b8281111561264357825182546001600160a01b0319166001600160a01b03909116178255602090920191600190910190612673565b60405180608001604052806126bb6126f4565b81526020016000815260200160608152602001600060018111156126ef57634e487b7160e01b600052602160045260246000fd5b905290565b604051806101c001604052806000815260200160006001600160a01b031681526020016000815260200160608152602001600081526020016000815260200160008152602001600081526020016000600181111561276257634e487b7160e01b600052602160045260246000fd5b8152602001606081526020016000151581526020016000815260200160608152602001606081525090565b5b8082111561264f576000815560010161278e565b80356001600160a01b03811681146127b957600080fd5b919050565b600082601f8301126127ce578081fd5b813560206127e36127de83612eec565b612ebb565b80838252828201915082860187848660051b8901011115612802578586fd5b855b8581101561282757612815826127a2565b84529284019290840190600101612804565b5090979650505050505050565b600082601f830112612844578081fd5b813560206128546127de83612eec565b80838252828201915082860187848660051b8901011115612873578586fd5b855b8581101561282757813584529284019290840190600101612875565b803580151581146127b957600080fd5b80356127b981613004565b60006101c082840312156128be578081fd5b6128c6612e6e565b9050813581526128d8602083016127a2565b602082015260408201356040820152606082013567ffffffffffffffff8082111561290257600080fd5b61290e85838601612834565b60608401526080840135608084015260a084013560a084015260c084013560c084015260e084013560e0840152610100915061294b8285016128a1565b828401526101209150818401358181111561296557600080fd5b61297186828701612834565b83850152506101409150612986828501612891565b8284015261016091508184013582840152610180915081840135818111156129ad57600080fd5b6129b9868287016127be565b83850152506101a0915081840135818111156129d457600080fd5b6129e0868287016127be565b8385015250505092915050565b600080604083850312156129ff578182fd5b612a08836127a2565b9150612a16602084016127a2565b90509250929050565b600060208284031215612a30578081fd5b813567ffffffffffffffff811115612a46578182fd5b612a52848285016128ac565b949350505050565b600060208284031215612a6b578081fd5b813567ffffffffffffffff80821115612a82578283fd5b9083019060808286031215612a95578283fd5b612a9d612e98565b823582811115612aab578485fd5b612ab7878286016128ac565b82525060208301356020820152604083013582811115612ad5578485fd5b612ae187828601612834565b60408301525060608301359250612af783613004565b6060810192909252509392505050565b600060208284031215612b18578081fd5b5035919050565b60008060408385031215612b31578182fd5b82359150612a16602084016127a2565b600080600060608486031215612b55578081fd5b8335925060208401359150612b6c604085016127a2565b90509250925092565b60008060008060808587031215612b8a578081fd5b8435935060208501359250612ba1604086016127a2565b9150606085013567ffffffffffffffff811115612bbc578182fd5b612bc887828801612834565b91505092959194509250565b6000815180845260208085019450808401835b83811015612c0c5781516001600160a01b031687529582019590820190600101612be7565b509495945050505050565b600081548282526020808320835b83811015612c0c5781546001600160a01b031687529582019560019182019101612c25565b6000815180845260208085019450808401835b83811015612c0c57815187529582019590820190600101612c5d565b612c8281612fe3565b9052565b60006101c0825184526020830151612ca960208601826001600160a01b03169052565b50604083015160408501526060830151816060860152612ccb82860182612c4a565b9150506080830151608085015260a083015160a085015260c083015160c085015260e083015160e085015261010080840151612d0982870182612c79565b50506101208084015185830382870152612d238382612c4a565b9250505061014080840151612d3b8287018215159052565b505061016083810151908501526101808084015185830382870152612d608382612bd4565b925050506101a08084015185830382870152612d7c8382612bd4565b9695505050505050565b6000611e558284612c17565b8281526000612a526020830184612c17565b6000602080835283518082850152825b81811015612dd057858101830151858201604001528201612db4565b81811115612de15783604083870101525b50601f01601f1916929092016040019392505050565b602081526000611e556020830184612c86565b602081526000825160806020840152612e2660a0840182612c86565b9050602084015160408401526040840151601f19848303016060850152612e4d8282612c4a565b9150506060840151612e5e81612fe3565b6080939093019290925250919050565b6040516101c0810167ffffffffffffffff81118282101715612e9257612e92612fcd565b60405290565b6040516080810167ffffffffffffffff81118282101715612e9257612e92612fcd565b604051601f8201601f1916810167ffffffffffffffff81118282101715612ee457612ee4612fcd565b604052919050565b600067ffffffffffffffff821115612f0657612f06612fcd565b5060051b60200190565b60008219821115612f2357612f23612fa1565b500190565b600082612f3757612f37612fb7565b500490565b6000816000190483118215151615612f5657612f56612fa1565b500290565b600082821015612f6d57612f6d612fa1565b500390565b6000600019821415612f8657612f86612fa1565b5060010190565b600082612f9c57612f9c612fb7565b500690565b634e487b7160e01b600052601160045260246000fd5b634e487b7160e01b600052601260045260246000fd5b634e487b7160e01b600052604160045260246000fd5b6002811061300157634e487b7160e01b600052602160045260246000fd5b50565b6002811061300157600080fdfe53756d206f662077696e6e696e6753686172657320617272617920656c656d656e7473206d75737420626520313030202831303025294e6f74206d6f7265207468616e2031302077696e6e65727320706572206c6f74746f2f706f7443616e206e6f74206372656174652061206c6f74746f207769746820302062657420616d6f756e74417474656d707420746f2063616c6c2053746f72616765206d6574686f6420776974682077726f6e672067726f74746f206164647265737353746172742074696d65206d757374206265206c657373207468616e20656e642074696d65506f7420626574416d6f756e74206d7573742062652067726561746572207468616e203043616c6c65642073657447726f74746f206f6e2053746f7261676520776974682077726f6e6720706172616d65746572734e6f74206d6f7265207468616e2031302077696e6e696e67206e756d626572732070657220706f7457696e6e6572736861726573206c656e67746820646f6573206e6f74206d61746368206e756d626572206f662077696e6e6572734e756d626572206f6620706c6179657273206d7573742062652067726561746572207468616e20304c6f74746f20776974682073616d6520494420616e642043726561746f7220616c726561647920657869737473506f742077696e6e696e67206e756d62657273206d757374206265206174206c656173742031a2646970667358221220f3fff6dfb6ccdf044c5b184e82ee617c74c6a735b3a47c59853ecfde33c4278764736f6c63430008040033",
    "sourcePath": "/Users/aardvocate/src/idempotent/grotto/grotto-contracts/contracts/libraries/storage.sol",
    "compiler": {
        "name": "solc",
        "version": "0.8.4+commit.c7e474f2"
    },
    "functionHashes": {
        "addNewLotto((uint256,address,uint256,uint256[],uint256,uint256,uint256,uint256,uint8,uint256[],bool,uint256,address[],address[]))": "7e50e572",
        "addNewPot(((uint256,address,uint256,uint256[],uint256,uint256,uint256,uint256,uint8,uint256[],bool,uint256,address[],address[]),uint256,uint256[],uint8))": "163dce9d",
        "claimWinnings(uint256)": "677bd9ff",
        "findClaimer(uint256,address)": "8a032efa",
        "forceEndLotto(uint256)": "01868db6",
        "getLottoById(uint256)": "ba5c990e",
        "getPotById(uint256)": "8e6fd9d9",
        "playLotto(uint256,uint256,address)": "d86b24eb",
        "playPot(uint256,uint256,address,uint256[])": "1a52fb96",
        "setGrotto(address,address)": "6852ef5a",
        "setPlatformOwner(address,address)": "57ba48fe"
    },
    "gasEstimates": {
        "creation": {
            "codeDepositCost": "2576800",
            "executionCost": "105273",
            "totalCost": "2682073"
        },
        "external": {
            "addNewLotto((uint256,address,uint256,uint256[],uint256,uint256,uint256,uint256,uint8,uint256[],bool,uint256,address[],address[]))": "infinite",
            "addNewPot(((uint256,address,uint256,uint256[],uint256,uint256,uint256,uint256,uint8,uint256[],bool,uint256,address[],address[]),uint256,uint256[],uint8))": "infinite",
            "claimWinnings(uint256)": "infinite",
            "findClaimer(uint256,address)": "2368",
            "forceEndLotto(uint256)": "20342",
            "getLottoById(uint256)": "infinite",
            "getPotById(uint256)": "infinite",
            "playLotto(uint256,uint256,address)": "infinite",
            "playPot(uint256,uint256,address,uint256[])": "infinite",
            "setGrotto(address,address)": "infinite",
            "setPlatformOwner(address,address)": "infinite"
        },
        "internal": {
            "_findLottoWinner(uint256)": "infinite",
            "_findPotWinner(uint256,address,uint256[] memory)": "infinite",
            "findLottoWinner(uint256)": "infinite",
            "findPotWinner(uint256,address,uint256[] memory)": "infinite"
        }
    }
}